:0400000088EF05F090
:1000080000C016F001C015F09EAC65D01F50010A63
:100018003AE1C4CF01F0006AC3500026000E012265
:1000280000C020F001C021F05AEC04F0520E046E1A
:10003800270E056E200E066E770E076E82EC04F012
:10004800000E046E000E056E480E066E840E076ED6
:1000580082EC04F01FEC05F000C020F001C021F094
:100068005AEC04F0710E046E3D0E056E7A0E066EA3
:10007800800E076E15EC05F01FEC05F000C022F0AD
:1000880001C023F027D0C4CF01F0006AC350002676
:10009800000E012200C01DF001C01EF05AEC04F051
:1000A800520E046E270E056E200E066E770E076E32
:1000B80082EC04F0000E046E000E056E480E066E0B
:1000C800840E076E82EC04F01FEC05F000C01DF0F2
:1000D80001C01EF09E9CF2A470D0000E80B8010EE4
:1000E800176E186A1F5203E018EC05F001D0D6DB32
:1000F800000E1A1802E1000E191810E11B6A1C6A9A
:10010800000E181802E1000E171803E1196A1A6A9E
:1001180004D0010E196E000E1A6E45D0000E1A1882
:1001280002E1010E191821E1000E181802E1010E72
:10013800171818E1010E1B6E000E1C6E800E1E189B
:10014800006E800E2118005C02E120501D5C05E263
:10015800010E196E000E1A6E04D0020E196E000EF2
:100168001A6E02D0196A1A6A1ED0000E181802E117
:10017800010E171816E11B6A1C6A800E2318006E00
:10018800800E1E18005C02E11D50225C05E2020E82
:10019800196E000E1A6E04D0010E196E000E1A6E3A
:1001A80002D0196A1A6A1BB002D0809401D08084E8
:1001B800840ED66E6D0ED76EF29416C000F015C080
:0401C80001F0110031
:1001CC000B820BAEF0EF00F0036802680168006868
:0801DC000A360232FF0E120088
:0801E4000AAE029E000E12009B
:1001EC000B840BAE01EF01F0010E036E026A016A83
:0A01FC00006A0A360232FF0E1200FC
:0E020600026A016A006A086A036A000E1200AA
:100214000CB04CEF01F00CA2F2EF01F00E6A000EEC
:10022400026463EF01F0F00E0214D8A42EEF01F083
:10023400023A01380F0B02260138F00B016E003828
:100244000F0B01260038F00B006E08380F0B002648
:100254000838F00B086E0E84D89002BE47EF01F008
:1002640008360036013602360E2A02BE47EF01F088
:1002740008360036013602360E2A02BE47EF01F078
:1002840008360036013602360E2A0E500364E8EFB3
:1002940001F0035E0BBC08AEEDEF01F0D880800ED8
:1002A40008640030000E002201220222D8A0EDEFE3
:1002B40001F0023201320032034AF2EF01F0EDEFB5
:1002C40001F001C002F000C001F008C000F0086AAB
:1002D400000E0E8602649AEF01F0F00E0214D8A408
:1002E40082EF01F0023A01380F0B02260138F00BBD
:1002F400016E00380F0B01260038F00B006E0E84DF
:10030400D89002BE47EF01F00036013602360E2ABD
:1003140002BE47EF01F00036013602360E2A02BE55
:1003240047EF01F00036013602360E2A47EF01F09E
:1003340001C002F000C001F0006A000E0E960E88A3
:100344000264C7EF01F0F00E0214D8A4B2EF01F07A
:10035400023A01380F0B02260138F00B016E0E84AD
:10036400D89002BE47EF01F0013602360E2A02BED3
:1003740047EF01F0013602360E2A02BE47EF01F0C4
:10038400013602360E2A47EF01F001C002F0016A7D
:10039400000E0E860264F7EF01F0F00E0214D8A4EA
:1003A400D6EF01F0023A0E84D89002BE47EF01F076
:1003B40002360E2A02BE47EF01F002360E2A02BEB2
:1003C40047EF01F002360E2A47EF01F0010E0C6EE2
:1003D4000BDFFAEF01F0020E0C6E02DFFAEF01F010
:1003E400040E0C6EF1DEFAEF01F0080E0C6E09DF5C
:0203F4001200F5
:1003F6000C6A0E6A0250D8A414EF02F001C002F093
:1004060000C001F0006A0E860250D8A414EF02F074
:1004160001C002F0016A0E960E880250D8B426EF8B
:1004260002F00E50035ED8A4D8A02BEF02F0D890AD
:1004360002BE30EF02F0003601360236032E1BEF05
:1004460002F02BEF02F0010E0C6EDADE33EF02F053
:10045600020E0C6EC8DE33EF02F0040E0C6EBFDE29
:02046600120082
:100468000B800BAE40EF02F0026A0AAEFF0E026E7E
:0C047800016E006E0A360232FF0E120008
:10048400025006180E6E086A096A0B6A0350076464
:1004940035EF03F006500A6E068E028E03500B6E83
:1004A4000750036E000E0B6485EF02F00B50075EDD
:1004B400D8B426EF03F0070E0764F4EF02F0075EEA
:1004C40000C008F001C000F002C001F0026A074E4B
:1004D40026EF03F00764C9EF02F0075E00C008F0DE
:1004E40001C000F0016A074E26EF03F00764A7EF8E
:1004F40002F0075E00C008F0006A074E26EF03F022
:1005040007648EEF02F00AC002F005C001F004C0D7
:1005140000F0086A4FEF04F0030E076499EF02F04D
:10052400075E08380F0B086E074E26EF03F0D890CD
:100534000832074E26EF03F0D8900832074E26EF14
:1005440003F0D890083226EF03F0030E0764B8EFE7
:1005540002F0075E08380F0B086E0038F00B08260F
:1005640000380F0B006E074E26EF03F0D8900032D0
:100574000832074E26EF03F0D89000320832074EB7
:1005840026EF03F0D8900032083226EF03F0030E72
:100594000764E0EF02F0075E08380F0B086E0038BE
:1005A400F00B082600380F0B006E0138F00B002604
:1005B40001380F0B016E074E26EF03F0D89001327D
:1005C40000320832074E26EF03F0D8900132003291
:1005D4000832074E26EF03F0D89001320032083279
:1005E40026EF03F0030E076411EF03F0075E0838EB
:1005F4000F0B086E0038F00B082600380F0B006E46
:100604000138F00B002601380F0B016E0238F00B95
:10061400012602380F0B026E074E26EF03F0D89026
:100624000232013200320832074E26EF03F0D8902E
:100634000232013200320832074E26EF03F0D8901E
:100644000232013200320832096A000E0EAE1AEF8D
:1006540004F0081E001E011E021E082A00220122A8
:1006640002221AEF04F00750D8A43BEF03F04FEF37
:1006740004F0096A02C00AF0028E068E0750035C79
:10068400076ED8B40DEF04F0070E0764DBEF03F038
:10069400075E0450096E0550046E0650056E066A26
:1006A400074E0DEF04F0070E0764B0EF03F0075E8A
:1006B4000450096E0550046E056A074E0DEF04F0F0
:1006C400070E07648EEF03F0075E0450096E046A98
:1006D400074E0DEF04F0070E076475EF03F00AC030
:1006E40002F04FEF04F0030E076480EF03F0075E9F
:1006F40009380F0B096E074E0DEF04F0D89009323C
:10070400074E0DEF04F0D8900932074E0DEF04F0B8
:10071400D89009320DEF04F0030E07649FEF03F045
:10072400075E09380F0B096E0438F00B09260438EC
:100734000F0B046E074E0DEF04F0D890043209320B
:10074400074E0DEF04F0D89004320932074E0DEF36
:1007540004F0D890043209320DEF04F0030E07645C
:10076400C7EF03F0075E09380F0B096E0438F00B6E
:10077400092604380F0B046E0538F00B04260538DF
:100784000F0B056E074E0DEF04F0D89005320432BE
:100794000932074E0DEF04F0D890053204320932C5
:1007A400074E0DEF04F0D8900532043209320DEFF4
:1007B40004F0030E0764F8EF03F0075E09380F0B2B
:1007C400096E0438F00B092604380F0B046E053843
:1007D400F00B042605380F0B056E0638F00B0526C2
:1007E40006380F0B066E074E0DEF04F0D890063254
:1007F400053204320932074E0DEF04F0D890063268
:10080400053204320932074E0DEF04F0D890063257
:10081400053204320932086A000E0EAE1AEF04F0F3
:10082400091E041E051E061E092A0422052206228C
:1008340009500826045000220550012206500222C5
:100844000EBE31EF04F0D8A040EF04F002320132C2
:1008540000320832033E40EF04F04AEF04F0D8B00F
:1008640045EF04F0000E081E001E011E021E082A99
:100874000022012202220A7E45EF04F0010E0C6ED2
:10088400C7DC51EF04F0020E0C6EC2DC51EF04F031
:10089400040E0C6E99DC51EF04F0000E0C6E120085
:1008A400440EC26EC40EC16E010E1F6EC2841200CD
:1008B40000C008F00150006E016A026A036A0B6A04
:1008C4000C6A016A026A036A960E036E0A6A00AE33
:1008D40072EF04F0081E001E082AD8B4002A0A8EFB
:1008E40000C001F008C000F0086A026A82DD12004C
:1008F4000900F5CFE6FF0006FBE10106F9E112006D
:10090400086A096A000E0762036407EF05F00250E3
:1009140006180A6E075003267E0ED8A098EF04F03E
:10092400035ED8B00CEF05F09CEF04F0035ED8A092
:1009340011EF05F0028E068E02C00EF001C00BF01E
:1009440000C00DF000500402F4CF0CF00150050279
:10095400F4CF00F0F3CF08F00402F3500C26F45067
:100964000822000E00220D500502F3500C26F4500C
:100974000822000E002202500402F3500826F4500C
:10098400002202500502016A000E0122F3500026E3
:10099400F45001220D500602F3500826F4500022B0
:1009A400026A000E012202220B500602F3500026B6
:1009B400F4500122000E02220E500602F3500126CA
:1009C400F450022202BEEFEF04F00836003601367E
:1009D40002360306D8B411EF05F002EF05F0D88013
:1009E400800E08640030000E002201220222D8A0EA
:1009F40002EF05F0023201320032034A0CEF05F037
:100A04000AAE029E000E14EF05F0010E03EC01F095
:100A140014EF05F0020EE6EC00F014EF05F0040EFE
:060A2400F6EC00F01200E8
:060A2A00067E2BDD120028
:0E0A3000410EC26ECE0EC16E1F6AC28412004D
:100A3E000B6A0350D8B465EF05F002500A6E028EB1
:100A4E008E0E035E03AE69EF05F0036C080E035CB9
:100A5E00D8A044EF05F0036E013602C001F0026A21
:100A6E00080E035CD8A044EF05F0036E0136016A50
:100A7E000350D8A4D8904EEF05F00350D8B44EEFE3
:100A8E0005F0D89002320132032E48EF05F00BBC70
:100A9E0001A05BEF05F0D8A05BEF05F0012AD8B4FA
:100AAE00022A02BE78EF05F00AAE7DEF05F0021EB7
:100ABE00011E012AD8B4022A7DEF05F0026A016AEE
:100ACE007DEF05F00B800BAE81EF05F0026A0AAEEA
:100ADE0081EF05F0FF0E026E016E0A36023281EFD3
:100AEE0005F0010E0C6EB9DC83EF05F0000E0C6EF6
:100AFE0083EF05F0FF0E0C6E0150006E0250016E7A
:020B0E001200D3
:100B1000176A186A196A1A6A1B6A1C6A1D6A1E6AB1
:100B20001F6A206A216A226A236A928892809282CE
:100B30009294440EC26EC40EC16E9E9C9D8C810E1A
:100B4000D56E840ED66E6D0ED76EF294F28AF28E4A
:040B5000FFD7FFD7F5
:020000040030CA
:0D000100220F0EFF0181FF0FC00FE00F4026
:00000001FF
