:04000000EDEF04F02C
:1000080000C016F001C015F09EAC40D01F50010A88
:1000180028E1C4CF01F0006AC3500026000E012277
:1000280000C020F001C021F0320E046E000E056EF3
:1000380022EC04F000C020F001C021F04AEC04F0EA
:10004800710E046E3D0E056E7A0E066E800E076EFA
:10005800EAEC04F072EC04F000C022F001C023F0D6
:1000680014D0C4CF01F0006AC3500026000E01224C
:1000780000C01DF001C01EF0320E046E000E056EA9
:10008800DDDB00C01DF001C01EF09E9CF2A465D00F
:10009800000E80B8010E176E186AE2EC04F0DBEC73
:1000A80004F0000E1A1802E1000E191810E11B6A7C
:1000B8001C6A000E181802E1000E171803E1196AED
:1000C8001A6A04D0010E196E000E1A6E45D0000E81
:1000D8001A1802E1010E191821E1000E181802E1A0
:1000E800010E171818E1010E1B6E000E1C6E800E13
:1000F8001E18006E800E2118005C02E120501D5C65
:1001080005E2010E196E000E1A6E04D0020E196E69
:10011800000E1A6E02D0196A1A6A1ED0000E18183C
:1001280002E1010E171816E11B6A1C6A800E2318DB
:10013800006E800E1E18005C02E11D50225C05E274
:10014800020E196E000E1A6E04D0010E196E000E02
:100158001A6E02D0196A1A6AF29416C000F015C015
:0401680001F0110091
:10016C000B820BAEC0EF00F00368026801680068F8
:08017C000A360232FF0E1200E8
:0E018400026A016A006A086A036A000E12002D
:100192000B840BAED4EF00F0010E036E026A016A0B
:0A01A200006A0A360232FF0E120056
:0801AC000AAE029E000E1200D3
:1001B4000CB01CEF01F00CA2C2EF01F00E6A000EAD
:1001C400026433EF01F0F00E0214D8A4FEEF00F045
:1001D400023A01380F0B02260138F00B016E003889
:1001E4000F0B01260038F00B006E08380F0B0026A9
:1001F4000838F00B086E0E84D89002BE17EF01F099
:1002040008360036013602360E2A02BE17EF01F018
:1002140008360036013602360E2A02BE17EF01F008
:1002240008360036013602360E2A0E500364B8EF43
:1002340001F0035E0BBC08AEBDEF01F0D880800E68
:1002440008640030000E002201220222D8A0BDEF73
:1002540001F0023201320032034AC2EF01F0BDEF75
:1002640001F001C002F000C001F008C000F0086A0B
:10027400000E0E8602646AEF01F0F00E0214D8A498
:1002840052EF01F0023A01380F0B02260138F00B4D
:10029400016E00380F0B01260038F00B006E0E843F
:1002A400D89002BE17EF01F00036013602360E2A4E
:1002B40002BE17EF01F00036013602360E2A02BEE6
:1002C40017EF01F00036013602360E2A17EF01F05F
:1002D40001C002F000C001F0006A000E0E960E8804
:1002E400026497EF01F0F00E0214D8A482EF01F03B
:1002F400023A01380F0B02260138F00B016E0E840E
:10030400D89002BE17EF01F0013602360E2A02BE63
:1003140017EF01F0013602360E2A02BE17EF01F084
:10032400013602360E2A17EF01F001C002F0016A0D
:10033400000E0E860264C7EF01F0F00E0214D8A47A
:10034400A6EF01F0023A0E84D89002BE17EF01F036
:1003540002360E2A02BE17EF01F002360E2A02BE42
:1003640017EF01F002360E2A17EF01F0010E0C6EA2
:100374000EDFCAEF01F0020E0C6E16DFCAEF01F0B9
:10038400040E0C6EF1DECAEF01F0080E0C6EF8DEFE
:02039400120055
:10039600025006180E6E086A096A0B6A0350076453
:1003A600BEEF02F006500A6E068E028E03500B6EEA
:1003B6000750036E000E0B640EEF02F00B50075E43
:1003C600D8B4AFEF02F0070E07647DEF02F0075EC8
:1003D60000C008F001C000F002C001F0026A074E3A
:1003E600AFEF02F0076452EF02F0075E00C008F0BC
:1003F60001C000F0016A074EAFEF02F0076430EF6C
:1004060002F0075E00C008F0006A074EAFEF02F088
:10041600076417EF02F00AC002F005C001F004C03D
:1004260000F0086AD8EF03F0030E076422EF02F02B
:10043600075E08380F0B086E074EAFEF02F0D89034
:100446000832074EAFEF02F0D8900832074EAFEFF2
:1004560002F0D8900832AFEF02F0030E076441EFC6
:1004660002F0075E08380F0B086E0038F00B0826FE
:1004760000380F0B006E074EAFEF02F0D890003237
:100486000832074EAFEF02F0D89000320832074E1E
:10049600AFEF02F0D89000320832AFEF02F0030E51
:1004A600076469EF02F0075E08380F0B086E003824
:1004B600F00B082600380F0B006E0138F00B0026F3
:1004C60001380F0B016E074EAFEF02F0D8900132E4
:1004D60000320832074EAFEF02F0D89001320032F8
:1004E6000832074EAFEF02F0D890013200320832E0
:1004F600AFEF02F0030E07649AEF02F0075E0838CA
:100506000F0B086E0038F00B082600380F0B006E34
:100516000138F00B002601380F0B016E0238F00B84
:10052600012602380F0B026E074EAFEF02F0D8908D
:100536000232013200320832074EAFEF02F0D89095
:100546000232013200320832074EAFEF02F0D89085
:100556000232013200320832096A000E0EAEA3EFF3
:1005660003F0081E001E011E021E082A0022012298
:100576000222A3EF03F00750D8A4C4EF02F0D8EF8D
:1005860003F0096A02C00AF0028E068E0750035C69
:10059600076ED8B496EF03F0070E076464EF03F016
:1005A600075E0450096E0550046E0650056E066A15
:1005B600074E96EF03F0070E076439EF03F0075E68
:1005C6000450096E0550046E056A074E96EF03F057
:1005D600070E076417EF03F0075E0450096E046AFE
:1005E600074E96EF03F0070E0764FEEF02F00AC00F
:1005F60002F0D8EF03F0030E076409EF03F0075E7D
:1006060009380F0B096E074E96EF03F0D8900932A2
:10061600074E96EF03F0D8900932074E96EF03F097
:10062600D890093296EF03F0030E076428EF03F023
:10063600075E09380F0B096E0438F00B09260438DB
:100646000F0B046E074E96EF03F0D8900432093272
:10065600074E96EF03F0D89004320932074E96EF14
:1006660003F0D8900432093296EF03F0030E0764C4
:1006760050EF03F0075E09380F0B096E0438F00BD4
:10068600092604380F0B046E0538F00B04260538CE
:100696000F0B056E074E96EF03F0D8900532043225
:1006A6000932074E96EF03F0D8900532043209322C
:1006B600074E96EF03F0D89005320432093296EFD2
:1006C60003F0030E076481EF03F0075E09380F0B92
:1006D600096E0438F00B092604380F0B046E053832
:1006E600F00B042605380F0B056E0638F00B0526B1
:1006F60006380F0B066E074E96EF03F0D8900632BB
:10070600053204320932074E96EF03F0D8900632CE
:10071600053204320932074E96EF03F0D8900632BE
:10072600053204320932086A000E0EAEA3EF03F05A
:10073600091E041E051E061E092A0422052206227B
:1007460009500826045000220550012206500222B4
:100756000EBEBAEF03F0D8A0C9EF03F002320132A1
:1007660000320832033EC9EF03F0D3EF03F0D8B0EE
:10077600CEEF03F0000E081E001E011E021E082A00
:100786000022012202220A7ECEEF03F0010E0C6E39
:100796000EDDDAEF03F0020E0C6E09DDDAEF03F080
:1007A600040E0C6EE0DCDAEF03F0000E0C6E1200A5
:1007B6000C6A0E6A0250D8A4F4EF03F001C002F0EE
:1007C60000C001F0006A0E860250D8A4F4EF03F0D0
:1007D60001C002F0016A0E960E880250D8B406EFE8
:1007E60004F00E50035ED8A4D8A00BEF04F0D89006
:1007F60002BE10EF04F0003601360236032EFBEF80
:1008060003F00BEF04F0010E0C6EB9DC13EF04F0ED
:10081600020E0C6EBBDC13EF04F0040E0C6EC3DC90
:020826001200BE
:100828000B800BAE20EF04F0026A0AAEFF0E026ED8
:0C083800016E006E0A360232FF0E120044
:100844000B6A0A6A096A00500402F4CF09F0F3CF74
:1008540008F001500502F4CF0BF0F3CF0AF000507A
:100864000502F3500926F4500A22E86A0B220150CB
:100874000402F3500926F4500A22E86A0B2208C045
:1008840000F009C001F00AC002F00BC003F012002E
:1008940000C008F00150006E016A026A036A0B6A24
:1008A4000C6A016A026A036A960E036E0A6A00AE53
:1008B40062EF04F0081E001E082AD8B4002A0A8E2B
:1008C40000C001F008C000F0086A026A72DF12007A
:1008D4000900F5CFE6FF0006FBE10106F9E112008D
:1008E4000B6A0350D8B4B8EF04F002500A6E028EBB
:1008F4008E0E035E03AEBCEF04F0036C080E035CC3
:10090400D8A097EF04F0036E013602C001F0026A2A
:10091400080E035CD8A097EF04F0036E0136016A59
:100924000350D8A4D890A1EF04F00350D8B4A1EF99
:1009340004F0D89002320132032E9BEF04F00BBC7A
:1009440001A0AEEF04F0D8A0AEEF04F0012AD8B4B1
:10095400022A02BECBEF04F00AAED0EF04F0021E6E
:10096400011E012AD8B4022AD0EF04F0026A016AF7
:10097400D0EF04F00B800BAED4EF04F0026A0AAEA1
:10098400D4EF04F0FF0E026E016E0A360232D4EF89
:1009940004F0010E0C6E46DFD6EF04F0000E0C6E70
:1009A400D6EF04F0FF0E0C6E0150006E0250016E83
:0209B40012002F
:0E09B600410EC26ECE0EC16E1F6AC2841200C8
:1009C400440EC26EC40EC16E010E1F6EC2841200AC
:0609D400067EDFDC1200CC
:1009DA00176A186A196A1A6A1B6A1C6A1D6A1E6AE9
:1009EA001F6A206A216A226A236A92889280928206
:1009FA009294440EC26EC40EC16E9E9C9D8C810E52
:100A0A00D56E840ED66E6D0ED76EF294F28AF28E81
:040A1A00FFD7FFD72C
:020000040030CA
:0D000100220F0EFF0181FF0FC00FE00F4026
:00000001FF
