:0400000067EF00F0B6
:1000080000C015F09EAC13D01A50010A08E1C4CF05
:100018001CF01B6AC3501B26000E1C2207D0C4CF3D
:1000280017F0166AC3501626000E17229E9CF2A4DB
:1000380037D0000E80B8010E186E196A34D8000E39
:100048001E1802E1000E1D1810E11F6A206A000E3A
:10005800191802E1000E181803E11D6A1E6A04D07F
:10006800010E1D6E000E1E6E1AD0000E1E1802E143
:10007800010E1D1814E1010E1F6E000E206E800E79
:100088001718006E800E1C18005C02E11B50165CED
:1000980001E204D0020E1D6E000E1E6E00D0F29416
:0600A80015C000F011007C
:1000AE00440EC26EC40EC16E010E1A6EC2841200D0
:1000BE000900F5CFE6FF0006FBE10106F9E11200AB
:1000CE00166A176A186A196A1A6A1B6A1C6A1D6A06
:1000DE001E6A1F6A206A928892809282440EC26EB5
:1000EE00C40EC16E9E9C9D8C810ED56E840ED66EF6
:0E00FE006D0ED76EF294F28AF28EFFD7FFD706
:020000040030CA
:0D000100220F0EFF0181FF0FC00FE00F4026
:00000001FF
